:1000000000800020BD010000911D00004D1D00007A
:100010004D1D00004D1D00004D1D00004D1D000038
:100020004D1D00004D1D00004D1D0000911D0000E4
:10003000911D00004D1D0000312E0000352E0000E6
:10004000911D0000911D0000911D0000911D0000F8
:10005000911D0000911D0000911D0000911D0000E8
:10006000911D0000911D0000911D0000911D0000D8
:10007000911D0000911D0000911D0000911D0000C8
:10008000911D0000911D0000911D0000911D0000B8
:10009000911D0000911D0000911D0000911D0000A8
:1000A000911D0000911D0000911D0000911D000098
:1000B000911D0000911D0000911D0000911D000088
:1000C000911D0000911D0000911D0000911D000078
:1000D000911D0000911D0000911D0000911D000068
:1000E000911D0000911D0000911D0000911D000058
:1000F000911D0000911D0000911D0000911D000048
:10010000911D0000911D0000911D0000911D000037
:10011000911D0000911D0000911D0000911D000027
:10012000911D0000911D0000911D0000911D000017
:10013000911D0000911D0000911D0000911D000007
:10014000911D0000911D0000911D0000911D0000F7
:10015000911D0000911D0000911D0000911D0000E7
:10016000911D000061210000911D0000911D000003
:10017000911D0000911D0000911D0000911D0000C7
:10018000911D0000911D0000911D0000911D0000B7
:10019000911D0000911D0000911D0000911D0000A7
:1001A000911D0000911D0000911D0000911D000097
:1001B000911D0000911D0000911D0000574B4CF255
:1001C000205210B5DA814DF62812DA8100BF00BF47
:1001D00001F0E2FD524B4FF010621A63514A9A63EC
:1001E000514ADA63514A136913F4807303D153619E
:1001F0004FF4A85313614E4B9A78110703D59A78A0
:1002000042F008029A704B4B4B482A221A704B4B13
:10021000DA1C121AC11E22F00302994288BF002282
:10022000474901F0BFFC474B4748DA1C121AC11E70
:1002300022F00302994288BF0022002103F0A4F9B2
:10024000424943484FF4DE7201F0ACFC414B424A54
:10025000802103F8011B9342FBD14FF0E0233C4A7D
:10026000C3F8082D3D4B8A221A70A3F5805324222F
:100270005A70A0221A709A799207FCD59A79D406FE
:10028000FCD4374B9A7902F00C02082AFAD10322E7
:100290001A7140225A719A799006FCD5304A9379A6
:1002A0005906FCD51E4B2F4959640221996420211F
:1002B0001170917901F00C010C29FAD12A4A5A6087
:1002C0004FF0E023294A5A6100229A6107221A61FD
:1002D000274AC3F8202D62B601F08CFD134B5B69F1
:1002E000DA0705D5234801F079FD234B234ADA616B
:1002F000234B1B785B0609D51F4C204BE2699A42C1
:1003000004D11C4801F06AFD0023E36101F04AFDBD
:1003100003F092F901F03EFCFEE700BF002005402B
:1003200000800440823F04000100002B00D0034005
:1003300000D0074000E007402097FF1F2C9DFF1FC3
:10034000F43B0000E4B4FF1F2C9DFF1F00000000E1
:100350000092FF1F00E400E05FE400E00050064070
:100360000040064000000301C0100500FF760100B8
:1003700000002020A847696900E00340A5C3945A03
:1003800000F00740FFFFFFFFFFFFFFFFFFFFFFFF42
:10039000FFFFFFFFFFFFFFFFFFFFFFFFFFFFFFFF6D
:1003A000FFFFFFFFFFFFFFFFFFFFFFFFFFFFFFFF5D
:1003B000FFFFFFFFFFFFFFFFFFFFFFFFFFFFFFFF4D
:1003C000FFFFFFFFFFFFFFFFFFFFFFFFFFFFFFFF3D
:1003D000FFFFFFFFFFFFFFFFFFFFFFFFFFFFFFFF2D
:1003E000FFFFFFFFFFFFFFFFFFFFFFFFFFFFFFFF1D
:1003F000FFFFFFFFFFFFFFFFFFFFFFFFFFFFFFFF0D
:10040000FFFFFFFFFFFFFFFFFFFFFFFFDEF9FFFF23
:100410000548064B1B1AD90F01EBA301491002D066
:10042000034B03B1184770472C9DFF1F2C9DFF1FE6
:100430000000000008B5054B1BB105490548AFF3A6
:100440000080BDE80840FFF7E3BF00BF00000000E8
:100450002C9DFF1FEC3B000000B50B480B4A0C49DC
:1004600087B00023CDE9020241F23C0C00930491D5
:100470000848ADF814C00E2302AA042100F04CFD78
:1004800007B05DF804FB00BF0200100001C00313B9
:10049000C102060048ACFF1F49B130B5037895B0E2
:1004A000052B6FD8DFE803F02D4D515A6E083948FF
:1004B0000322102100F080BD374B384A1B6803939C
:1004C0001069039B3649946815681B1AD068A1FB14
:1004D00003135168CDE90640CDE904510022990982
:1004E0009B0D8DF82230ADF820108DF823201423B9
:1004F00000220092274804AA202100F00DFD15B02B
:1005000030BD2849284A294B294C0693CDE90412CD
:100510000DF11B000C22542100F8011F14F8011FDB
:1005200002F1010C13461FFA8CF211B11A2AF3D111
:10053000192350326A44023300219BB202F8401C56
:10054000D6E7184B04930423D2E71A490123132258
:100550008DF81830CDE904120923C9E7164B0124A0
:1005600018788DF81040002347F6FF714FF6FF72A0
:100570008DF816308DF81100ADF81210ADF814207A
:100580000723B5E703480422102115B0BDE8304029
:1005900000F012BD48ACFF1FA4B0FF1F60B0FF1FEA
:1005A000D34D62100200100001C003138102064CFB
:1005B0002D3A00000100C0032497FF1F30B5054607
:1005C00085B012480C4600F081FE114A114953686B
:1005D00049790133536009B1012C01D805B030BD10
:1005E0000D4A68781268039203992C788DF80900F7
:1005F00000230093ADF80A1008488DF80840042342
:1006000002AA512100F088FC05B030BD44ACFF1FA8
:1006100060B0FF1F2497FF1FA4B0FF1F48ACFF1F4F
:1006200003292ED90378013BDBB2FD2B24D970B509
:100630001A4E427874788378C17804FB022204FB56
:100640000333121223F0FF0504FB011145EA0245B2
:1006500045EA1125002421462A463046013400F09F
:10066000A3FEB4F5707FF6D10D4C0E4A23681279C3
:100670000133236052B970BD0B480422302100F0D1
:100680009BBC09480322302100F096BC034800F0CF
:100690001DFE63680133636070BD00BF44ACFF1F83
:1006A00060B0FF1F2497FF1F48ACFF1F072954D9D4
:1006B0002DE9F0470379C7784478827845798679BF
:1006C00090F8079047EA0327037844EA0224002BB6
:1006D00048D1B7F5707F39D8BC422ED2DFF8A4A03C
:1006E000DFF8A480A8FB04325209C2EB0213A4EB8A
:1006F00083039BB2C2F34E01D20748BFC3F1770315
:100700009AF8012048BF9BB2C1EB011103EBC10372
:1007100002FB055002FB0661001221F0FF0141EAD5
:10072000004102FB099241EA1222013499B250467B
:1007300000F03AFEA3B2BB42D4D3144C144A23684F
:10074000127901332360A2B9BDE8F087BDE8F04714
:1007500010480622312100F02FBC0E48032231211F
:1007600000F02ABCBDE8F0470A480422312100F01D
:1007700023BC044800F0AAFD636801336360BDE850
:10078000F08700BF44ACFF1F8988888860B0FF1FD6
:100790002497FF1F48ACFF1F04297FD92DE9F84F8C
:1007A0000279C37843EA022303EB43081FFA88F86F
:1007B00008F10502914254DB44788278057844EAD6
:1007C0000224002D63D1E618B6F5707F50DC00F1ED
:1007D000050A002B39D0344FDFF8D090B6B2A7FB12
:1007E00004125209C2EB02115008A4EB8101B4F5C6
:1007F000707FC0EB001C0AEB05032C4889B21ED2A7
:10080000D20744BFC1F1770189B299F801E01AF823
:1008100005B09A7801EBCC0193F801C00EFB0BBB3D
:100820000EFB0CCC4FEA2B2B2CF0FF0C0EFB022204
:100830004CEA0B4C89B24CEA122200F0B5FD0134AF
:10084000A4B20335B442ADB2C9D1194C19492268DA
:10085000A3680979013243442260A36079B9BDE8F5
:10086000F88FBDE8F84F14480322332100F0A4BBF1
:10087000BDE8F84F10480622332100F09DBB0B481D
:1008800000F024FD636801336360BDE8F88FBDE8C4
:10089000F84F09480422332100F08EBB064803229A
:1008A000332100F089BB00BF8988888844ACFF1FD2
:1008B00060B0FF1F2497FF1F48ACFF1F012945D9D7
:1008C0000378052B47D8DFE803F0101A222B3603F4
:1008D000022905D043788178214A43EA0123D38055
:1008E00020480022402100F057BB1D491E4A437892
:1008F0000B701C4853704021002200F04DBB437820
:10090000A3F10A02142A26D8154A5370E8E70229EF
:10091000E6D043788178124A43EA01235380DFE727
:1009200043780F4A0F48003B18BF01231371402141
:10093000002200F031BB4378094A0A48003B18BF47
:10094000012353714021002200F026BB05480322F9
:10095000402100F031BB03480422402100F02CBBB1
:100960002497FF1F48ACFF1F44ACFF1F59B100B5CF
:10097000037885B08DF80C30052B3CD8DFE803F008
:100980001A20262F35081F480322122100F014BB1D
:100990001D4AD2888DF80D20120A03238DF80E20EF
:1009A00000220092174803AA222100F0B5FA05B0F0
:1009B0005DF804FB144A12788DF80D200223EFE74E
:1009C000114A52788DF80D200223E9E70E4A528829
:1009D0008DF80D20120A03238DF80E20E0E70A4A55
:1009E00012798DF80D200223DAE7074A52798DF843
:1009F0000D200223D4E703480422122100F0DCFA80
:100A0000D5E700BF48ACFF1F2497FF1F042975D905
:100A10002DE9F04144788178C6780279037882B074
:100A200044EA012446EA0226002B6CD116B9C4F52B
:100A30007076B6B2A719B7F5707F46DC06EB4600B4
:100A4000053001F0C7F900230370230A8370330ACD
:100A500005464FEA460C4470C6700371002E3CD028
:100A6000BAB22D482D4F294611E057F82330C3F371
:100A70000748C3F3072EDBB20134A4B2944281F8D5
:100A8000058081F806E0CB7101F1030125D0A0FBC0
:100A9000043E4FEA5E1ECEEB0E13A4EB83039BB223
:100AA0001EF0010F18BFC3F177034FEA5E0818BFAD
:100AB0009BB2C8EB081803EBC8039BB2B3F5707F79
:100AC000D3D300239E469846D6E715480622112127
:100AD00002B0BDE8F04100F06FBA06EB0C03002253
:100AE000053300920E489BB22A46212100F014FAE9
:100AF000284602B0BDE8F04101F06EB90848032273
:100B0000112100F059BA06480422112102B0BDE8B3
:100B1000F04100F051BA00BF89888888449DFF1FCA
:100B200048ACFF1F08B50179402922D8DFE801F061
:100B3000272B2121393D2121212121212121212161
:100B400043494F212121212121212121212121211D
:100B50002121212121212121212121212121212185
:100B6000555B2161212121212121212121212121C7
:100B70006700BDE808402848022200F01DBA03784B
:100B80009B0742D408BD00222348012100F004FA4B
:100B90000A2001F0DDF94FF0E023204AC3F80C2DC4
:100BA00008BDBDE80840FFF757BC4188BDE80840D4
:100BB0000530FFF703BD4188BDE808400530FFF769
:100BC0006BBC4188BDE808400530FFF71FBF418876
:100BD000BDE808400530FFF7C9BE4188BDE80840C0
:100BE0000530FFF71DBD4188BDE808400530FFF71F
:100BF0005DBD4188BDE808400530FFF7CDBD4188A7
:100C0000BDE808400530FFF759BE0022BDE80840A6
:100C10000148114600F0C0B948ACFF1F0400FA05B6
:100C20002DE9F0433D4E3E4C35683E4FDFF8F890DD
:100C300083B040F2EE2802F061F82378002B5FD0F9
:100C40003B78DB075CD53368D9F800209B1A0E2B64
:100C500056D93648354F00F0F3F9002421460022DA
:100C60003846013400F0A0FBB4F5707FF6D12F4870
:100C70002E4D00F02BFB0024214600222846013493
:100C800000F092FBB4F5707FF6D12848274D00F0B4
:100C90001DFB3268264B0192019A1A614FF003083E
:100CA0007E7801367601002426F0FF062146324682
:100CB0002846013400F078FBB4F5707FF6D1284661
:100CC00000F004FB642001F043F9002421460022D7
:100CD0002846013400F068FBB4F5707FF6D1284651
:100CE00000F0F4FA642001F033F9B8F10108D7D12B
:100CF000642001F02DF903B0BDE8F043FFF7ACBB71
:100D0000336822785B1B2AB1B3F5FA6FA1D801F0E2
:100D1000F5FF90E74345FAD99BE700BFA4B0FF1F5A
:100D200084B1FF1FA8B1FF1FACB1FF1F44ACFF1F70
:100D300060B0FF1F08B5054800F046F800B908BDCF
:100D4000BDE808400248FFF7EDBE00BF48ACFF1FFA
:100D50004CACFF1F10B50A4C0A4A0B4B82B0022064
:100D600000907821204600F055F908490848FF23F3
:100D70004FF48052637002B0BDE8104000F00AB832
:100D800044ACFF1F0082FF1F449DFF1F3497FF1FCD
:100D900048ACFF1FB2F5806F10B44FF0000428BFBD
:100DA0004FF4806280F80A44A0F80C4480F80E44A6
:100DB000C0F814440471C480047280F809440160CE
:100DC00010BCA0F810247047F0B590F80A3483B036
:100DD00004464BB14F4BD0F814241B680093009B82
:100DE0009B1A0A2B00F288804A4D002606272068AD
:100DF00003681B699847E0B1206803685B699847FE
:100E00002B68019394F80A340199C4F81414C2B2FF
:100E1000062BECD8DFE803F055624B31220F0400BB
:100E200094F80E3484F80924934284F80A64DED1DD
:100E3000012003B0F0BDB4F80C144B1C21449BB24C
:100E4000A4F80C344A7294F80E14E0884A40984290
:100E500084F80E24CBD884F80A74C8E794F80E34CA
:100E6000E1882272534084F80E34A4F80C640029FF
:100E7000F1D0052384F80A34B9E7E38894F80E1416
:100E800043EA0023B4F810049BB24A409842E3803E
:100E900084F80E242CD284F80A64A4F80C6484F834
:100EA0000E642671E680267284F809649FE794F840
:100EB0000E34E2800321534084F80E3484F80A147F
:100EC00095E7AA2A93D101232671E680267284F839
:100ED000096484F80E6484F80A3488E794F80E34C0
:100EE00022710221534084F80E3484F80A147EE7FC
:100EF000042384F80A347AE7002380F80A34A0F83F
:100F00000C3480F80E340371C380037280F8093406
:100F10006AE700BFA4B0FF1F2DE9F047074600684D
:100F20009DF820901E4603680C461B68AA21904637
:100F300098473868036849F004091B684946984790
:100F400038680368F5B229461B6898473868036813
:100F50006540310A1B6885EA09054D4098473868A5
:100F6000036821461B6898477EB1013E08F1FF34B3
:100F700018FA86F6386814F8011F03681B6898474A
:100F80002178B44285EA0105F4D13868036829461E
:100F90001B68BDE8F047184710B584B00223002451
:100FA0008DF80C108DF80D20009403AA1946FFF758
:100FB000B3FF04B010BD00BF00B585B00123944657
:100FC00000938DF80C10022303AA03218DF80DC0A5
:100FD000FFF7A2FF05B05DF804FB00BF08B5064AA5
:100FE000064B1279DA7700F093FF054B0549002292
:100FF0001A70086008BD00BF94B0FF1F0080004059
:1010000074B0FF1F78B0FF1F10B5044600F030FD2C
:10101000204610BD10B4064C9DF804C0218005493F
:101020000A60054A054982F800C010BC0B60704791
:101030009EB0FF1F80B0FF1F9CB0FF1F7CB0FF1F42
:101040002DE9F041904E914D3378286803F01F034D
:10105000052B8F4B1C889ABF04EB4404E400640109
:101060002246002102F090FA8A4B1868002800F00E
:10107000DB802246002102F087FA874B874FFF2250
:10108000C3F8C8200121022000F006FF01210E2034
:1010900000F002FF0121072000F0FEFE01210820E0
:1010A00000F0FAFE0121062000F0F6FE01211420D6
:1010B00000F0F2FE0121152000F0EEFE01210520D6
:1010C00000F0EAFE3378764E764803F0C003402BFA
:1010D000754B4FF000020CBF77213B211A6008BF0F
:1010E0004FF0520C5A6018BF4FF0290C996008BF9E
:1010F0004FF01C0E4FF0690118BF4FF00E0E4FF06D
:101100000808C3F80080D9605961C3F810E0C3F83B
:1011100018C033688764654F9A80DA609A829A6152
:10112000DA80634A1F601A61DA8B01211204996028
:101130007DD4A2B2B4F5004F3CBFDA83DA82998B3A
:101140005C482D6889B241F00801998303685A49C7
:101150001D60DA83DA821961DD8B00219982996141
:10116000D9800121998099602D04C4F10001D960D2
:101170007AD4B4F5004F01D2DA83DA82998B4F4DDD
:1011800089B241F0080199832B684D491F601961AC
:10119000DF8B00219980D96099829961D9800121E2
:1011A0009960390452D4B4F5004F01D2DA83DA825F
:1011B000998B3279434C89B241F008019983998B1C
:1011C00002F1804289B202F5043241F002019983B2
:1011D0000021B22311701370037903F1804303F5EA
:1011E0000433A22219701A702B792D4A03F180431F
:1011F00003F50433A320197018702E492F4800F00E
:1012000051FC2A793049531102F1100003F13823BF
:10121000403341F820409B0002F01F02012101FAF7
:1012200002F21A60BDE8F0812A681A6025E7B4F579
:10123000007F27D2D98BA2B201F47E411143D9831A
:10124000D98A01F47E411143D98278E7B4F5007F51
:10125000AED2D98B01F47E411143D983D98A01F4EE
:101260007E410A43DA82A3E7B4F5007F86D2D98BA8
:1012700001F47E411143D983D98A01F47E4111439F
:10128000D9827BE7A2B25AE79CB0FF1F80B0FF1F54
:101290009EB0FF1F7CB0FF1F00F00F400003010055
:1012A00084B0FF1F00A0044000800B402C97FF1F5C
:1012B000C4F00F408CB0FF1FC0F00F4094B0FF1F70
:1012C000C8F00F40DD0F00000092FF1F70B52A4CE0
:1012D0002378002BFCD1294A294B116818688142D8
:1012E0000CD0284B1B7803F01F03052B264B1A88C4
:1012F0003DD802EB4202D20000F054FC234D00F036
:1013000007FE2B68C01AB0F5967FF8D32049282332
:10131000CB604B610B6972B64A689A42FCD91C4992
:101320004A689A42FCD81A4A51689942FCD3002371
:101330001849136001205360174D20704FF480232B
:101340002820C1F8A030D0606921D6682D79134BD0
:10135000D160134C50615069124824795161DD7697
:101360000079DC760821D876116062B670BD520132
:1013700000F018FCC2E700BF74B0FF1F7CB0FF1F75
:1013800080B0FF1F9CB0FF1F9EB0FF1F78B0FF1FF3
:1013900000800B4000A0044084B0FF1F008000408C
:1013A0008CB0FF1F94B0FF1F2DE9F0477B4B1B78DB
:1013B00003F01F00052809D803F00703013B042BA5
:1013C0002CD8DFE803F023D2DCE3C800063814127F
:1013D0001314172800F2B282DFE810F0980290028E
:1013E0008902820225027B02F10066025A024E0245
:1013F0004102CB01AC02A602A0020302FD01E800FB
:10140000F601EE01D40174026F0208021302C2F366
:1014100007209BB202F47F0203431A43604B6148EA
:101420001B88B1FBF3F4951303FB141305F48075CB
:10143000C2F3C0512943551103EB430305F4803532
:101440000068DF002943150105F08075C65929435E
:101450004FF00135A540A14026EA05063143C151B0
:10146000911200EBC303C2F3C04701F48071501026
:101470000F434FEAA21800F480300743C2F3C0368E
:10148000D00008F48078911000F4803046EA080615
:1014900001F480710643C2F3C0200843D1014FEA32
:1014A000820C01F480310CF4807C0843C2F3C0113B
:1014B00041EA0C014FEAC22C4FEA821E0CF4803C38
:1014C0000EF4807E41EA0C01C2F3C00C4CEA0E0C13
:1014D0004FEAC23E0EF4803E4CEA0E0C4FEA022E5A
:1014E0000EF0807E47EA0E074FEA023E0EF0807E45
:1014F00046EA0E064FEA024E0EF0807E40EA0E00EB
:101500004FEA025E12060EF0807E02F0807241EA1F
:101510000E014CEA0202A740A640A040A140A24012
:101520005C6824EA05043C435C609C6824EA05048A
:1015300034439C60DC6824EA05042043D8601869C1
:1015400020EA050001431961596921EA05010A43AE
:101550005A61BDE8F0871304C2F3074003F47F0328
:1015600002F47F4203431A4358E71302101203F4B4
:101570007F0300F47F400343D2B21A434EE71304C3
:1015800003F47F03C2F30F221A4347E7064BC2F36B
:10159000074003EA022343EA00023FE79CB0FF1F33
:1015A0009EB0FF1F7CB0FF1F00FFFF0002F47F40D2
:1015B00040EA0260DBB20343120E43EA0242930D9B
:1015C000500B00F48030940C03F480730343C2F397
:1015D000C06704F480741009274343EAD27300F013
:1015E0008070950B05F48075C2F3C0562E435509E3
:1015F000940A05F4803504F480742E43C2F3C04588
:10160000254354084FEA921E04F480340EF4807E81
:101610002543C2F3C03444EA0E044FEAC20E4FEA37
:10162000920C0EF4803E0CF4807C44EA0E04C2F36B
:10163000C02E4EEA0C0E4FEAC21C0CF4803C034351
:10164000900000F480704EEA0C0EC2F3C01C4CEA0D
:10165000000CD0024FEA821800F4803008F4807841
:101660004CEA000CC2F3C00040EA08004FEAC2385E
:1016700008F4803840EA080002F0807847EA08075A
:101680004FEA522808F4803847EA08074FEA021860
:1016900008F0807846EA08064FEA022808F08078C9
:1016A00045EA08054FEA023808F0807844EA080461
:1016B0004FEA024808F080784EEA080E4FEA0258D6
:1016C000120608F0807802F080724CEA080C104391
:1016D0009F4ADFF880821288B1FBF2FA02FB1A11EE
:1016E000D8F800804FEA41194FF0013202FA0AF2AD
:1016F00004FA0AF403FA0AF307FA0AF706FA0AF6F2
:1017000005FA0AF50EFA0AFE0CFA0AFC00FA0AF0CB
:1017100058F809A02AEA020A4AEA030348F80930FD
:1017200008EB41114B6823EA02033B434B608B6893
:1017300023EA020333438B60CB6823EA02032B4383
:10174000CB600B6923EA020323430B614B6923EA55
:10175000020343EA0E034B618B6923EA020343EA67
:101760000C04CB698C6123EA02030343CB61BDE81F
:10177000F087100400F47F00DBB2034302F0FF2285
:101780001A431CE702F0FF1343EA0463120E43EA14
:1017900002229B0D500B00F4803003F48073940CF4
:1017A0000343C2F3C06704F480741009274343EA7B
:1017B000D27300F0807014E7100400F47F0040EA58
:1017C0000363E0B20343E1E7D5B2200445EA0363D3
:1017D00000F47F00F6E7E0B21B0240EA02609BB231
:1017E000E9E6100280B240EA0460E3E62004DBB2DE
:1017F00043EA026300F47F000343120E43EA02222D
:10180000980D530B03F4803300F48070940C18434C
:10181000C2F3C06704F480741309274340EAD2700E
:1018200003F08073DDE602F47F0040EA026002F418
:101830007F431843830D440B40EA126204F4803462
:1018400003F480732343940C04F48074C2F3C067E0
:101850002743140943EAD07304F08070C1E61004F2
:1018600000F47F00E4B202F07F421B0220431043E9
:101870009AB20243830D8DE7100280B2DBB20343BC
:1018800002F07F4220041A4300F47F00024396E6F0
:1018900020041B0200F47F009BB222F47F0203436A
:1018A00022F47F421A438AE61502130CADB2E0B26D
:1018B0001B0445EA00021A436BE702F47F0343EA84
:1018C00002637EE7100400F47F0040EA0460DBB2AC
:1018D00078E7D0B200041B0240EA02609BB2A8E79E
:1018E000100400F47F001B0240EA0460F6E71002D7
:1018F00080B240EA046002F47F039AE7100400F427
:101900007F0040EA036002F47F4392E71502ADB224
:10191000200445EA036300F47F008AE7D0B21B028B
:1019200040EA04609BB246E6100280B240EA0363DC
:10193000E0B240E690B240EA03633DE60020844610
:10194000864604460546064607460346C0E600BFEF
:101950009EB0FF1F7CB0FF1F70B5114E114D124C91
:101960003046002100F026F83046104E2A46214627
:1019700001F034FB3046002100F01CF830460C4EDC
:101980002A46214601F02AFB3046002100F012F8D9
:101990002A4621463046BDE8704001F01FBB00BF1B
:1019A00084B0FF1F2097FF1F091000008CB0FF1F9D
:1019B00094B0FF1F10B472B621B9026812B1037956
:1019C0000F2B41D9284C2188002341FA03F212F051
:1019D000010208D00133102BF7D162B60022026059
:1019E000037110BC70474FF0010C0CFA03FC41EA84
:1019F0000C01218062B61D495FFA83FC80F804C0A7
:101A00000C6C44F002040C64CC6B44F00204CC6314
:101A100003F10073A1F58021822403F590630C602B
:101A20005B0181F81AC081F81EC081F818C081F8E6
:101A30001FC010BC0360C3E90022C3E90222C3E94E
:101A40000422C3E906227047074C218841FA03FCAF
:101A50001CF0010FB8D003F1007303F59063B2EBF3
:101A6000431FB1D162B6BCE7A0B0FF1F00800440A5
:101A700003790F2B11D8094A937672B6084990F86A
:101A800004C00B88012202FA0CF223EA02030B8045
:101A900062B610220023027103607047008000408C
:101AA000A0B0FF1F30B591F804E015790EF0FC03EB
:101AB00003F1804303F500434FEACE04D3F800312D
:101AC00004F018041BBAE34005F0FC0404F1804460
:101AD00004F500444FEAC50CD4F800410CF0180C92
:101AE00024BA24FA0CF403F00F0304F00F049C4210
:101AF00018D90D7182F804E00B6814680C6013604B
:101B000091F804E00EF0FC0303F1804303F5004379
:101B10004FEACE04D3F8003104F018041BBAE340B6
:101B200003F00F03057905F0FC0404F1804404F58B
:101B30000044D4F8004194FA84FCEC0004F018044A
:101B40002CFA04FC0CF00F0C9C4508D280F804E041
:101B50000D710468AE460D68056063460C6015792A
:101B600005F0FC0000F1804000F50040EC00D0F8EA
:101B7000000104F0180400BAE04000F00F009842A1
:101B800006D90D7182F804E00B68106808601360D4
:101B900030BD00BF08B5FFF743F8FFF7CBF801F001
:101BA000ADF8FAE701B441EA000313F003036FD183
:101BB000403A41D351F8043B40F8043B51F8043B10
:101BC00040F8043B51F8043B40F8043B51F8043B17
:101BD00040F8043B51F8043B40F8043B51F8043B07
:101BE00040F8043B51F8043B40F8043B51F8043BF7
:101BF00040F8043B51F8043B40F8043B51F8043BE7
:101C000040F8043B51F8043B40F8043B51F8043BD6
:101C100040F8043B51F8043B40F8043B51F8043BC6
:101C200040F8043B51F8043B40F8043B51F8043BB6
:101C300040F8043B403ABDD2303211D351F8043B56
:101C400040F8043B51F8043B40F8043B51F8043B96
:101C500040F8043B51F8043B40F8043B103AEDD205
:101C60000C3205D351F8043B40F8043B043AF9D256
:101C700004320AD0D2071CBF11F8013B00F8013B27
:101C800003D30B7803704B78437001BC704700BFDF
:101C90000C2A4AD310F0030311D0C3F10403D21A63
:101CA000DB071CBF11F8013B00F8013B07D311F81B
:101CB000013B00F8013B11F8013B00F8013B11F03A
:101CC00003033FF475AF30B4043AC91AC3F1040CEE
:101CD00051F8044B022B19D0032B0BD0240A51F8D6
:101CE000043B1D0644EA050440F8044B1C46043A34
:101CF000F4D216E0240E51F8043B1D0244EA050418
:101D000040F8044B1C46043AF4D20AE0240C51F883
:101D1000043B1D0444EA050440F8044B1C46043A05
:101D2000F4D20432B1EB0C0130BC043AA0D3013A36
:101D300011F8013B00F8013BF9D20B7803704B78A6
:101D400043708B78837001BC704700BF08B50F4C9F
:101D5000636B58030DD4636B59050FD4636B1A057D
:101D600011D4636BDB04F3D500F012F8636B5803F6
:101D7000F1D500F0F5F9636B5905EFD500F008F8DF
:101D8000636B1A05EDD500F003F8EAE70080044024
:101D900008B5FFF7DBFF00BF014B10221A80704728
:101DA00000200540704700BF094A08B50346106887
:101DB00033B169460344A1F580518B4201D21360CF
:101DC00008BD01F011F90C2303604FF0FF3008BD8E
:101DD0003097FF1F01F00EB901F014B9034B002238
:101DE00010215A615A6018605961704700D0034051
:101DF000704700BFF0B54FF0E0244FF400054FF0FE
:101E0000807CC4F80851C4F808C14FF0007CC4F8C5
:101E100008C11D4A1D481E494FF0806CC4F808C116
:101E2000282300274BF6FF7609254FF0006CC4F8F5
:101E300008C183B057609660D3605361D361536229
:101E4000D3625363D3635364156047608660C36095
:101E5000436105604F608E60CB604B610D6000F0A8
:101E6000F1FFFFF7C5FF0B4C23680093009B132B7A
:101E7000FAD900F02FFD23680193019BB3F5967FFB
:101E8000F9D303B0F0BD00BF0080034000900340D1
:101E900000800B40A4B0FF1F212820D81B4A02EB72
:101EA000C00301295B680FD004291DD052F830000F
:101EB000002280F8802299B1022922D003290DD175
:101EC0004FF481721A60704752F830004FF4A272DA
:101ED00080F880121A601A6822F020021A60704797
:101EE0004FF480721A60704752F830104FF4A272AB
:101EF000012081F880021A601A6842F020021A60FC
:101F0000704740F203121A60704700BF383A000071
:101F100072B60D494FF0E02293690868D2F8042D9B
:101F200062B6520102D5322B88BF0130074AC3F591
:101F3000BB334FF47A71FF33A2FB032301FB00F0A4
:101F400000EB9310704700BFA4B0FF1FABAAAAAA72
:101F50002DE9F843044672B6204F4FF0E022936912
:101F60003D68D2F8042D62B6520102D5322B88BFEB
:101F700001350CB9BDE8F883DFF86490DFF86480C0
:101F8000A9EB0303A8FB03234FF47A7202FB05F5C8
:101F900005EB93154FF0E02672B6B1693A68D6F8B2
:101FA00004CD62B6A9EB0103A8FB03031CF0806F0C
:101FB000C5EB93134FF47A7002D0322988BF0132F7
:101FC00000FB0233B3F57A7F04D3013CD2D005F590
:101FD0007A75E1E700F092FEDEE700BFA4B0FF1FD4
:101FE000FF760100ABAAAAAA431E032B17D872B62C
:101FF0000C4951F8230080B110B40B4CB0F800C06C
:1020000034F81320A2EB0C02D0F804C041F823C02E
:1020100024F8132062B610BC704762B670470020E7
:10202000704700BF38B1FF1F88B1FF1F0138032878
:102030000BD872B6074B53F8203043B100205B68D1
:102040000130002BFBD162B6704700207047184664
:10205000F9E700BF60B1FF1F10B472B6194A1A4CFD
:10206000042312F8011B090743F0010C05D554F8AD
:10207000331061B154F83C10B9B10433142BF0D1D2
:1020800062B6124B00221A7010BC00F09BBC0F49C4
:1020900004EBC302083050600A780D4844F833005E
:1020A000013A0A7062B610BC7047084A094904EB4D
:1020B000CC0308305860137844F83C10013B13708F
:1020C00062B6F0E7C83B00000080FF1F90B1FF1F21
:1020D00088004000C8004000421E032A0ED81C4B56
:1020E000400140F0100010B4034472B6194CA05CDB
:1020F00003281CD8DFE800F01315031870470520EB
:10210000A05413F0080F088814BFC8228822083191
:1021100042EA004259601A6062B610BC7047032060
:10212000EEE708330220EBE708330420E8E70A4B28
:1021300053F8220038B1094B53F82200416043F8AC
:10214000221062B6E9E743F82210044BF7E700BF1C
:102150000080FF1F80B1FF1F60B1FF1F70B1FF1F24
:102160002DE9F04FDFF8CCA2DFF8CCB285B03DE02E
:10217000B24D9E0805EBC607013A796813F00803D3
:10218000D4B2A1F1080040F0B88055F836204FEAEB
:10219000124C120C21F808CC00F0A78021F8063C64
:1021A00041F8043CA64B53F82420002A00F0018299
:1021B000A44B53F82420506043F82400A24B33F87A
:1021C0001420944423F814C000F0DCFB002800F035
:1021D000E98117F0080F9D4B00F1080018BF5B461E
:1021E000786045F8363008238AF880309AF88030D5
:1021F0005907DCB21BD5964B1B78ABB195490A78D1
:1022000002F0FF032AB1013BDBB20B70002B00F0A0
:10221000468391490A7802F0FF032AB1013BDBB201
:102220000B70002B00F0EB8104238AF8803014F04F
:10223000080200F0CC819AF89020D3B2120997D10D
:10224000DFF8F8919B0809EBC30459F83300646880
:10225000C0F3830009287CD00FD80138012808D8A2
:102260007E4A158842F22100854200F0FB8149F840
:1022700033B001238AF89430B5E70D28F9D1D4E9B9
:102280000007774D49F833B0744E764CC9F81020EA
:1022900083B240F2816CC9F818202A6063454FF080
:1022A0000102C6E90007227000F2FF80B3F5D06F8B
:1022B00080F0CB82B3F5817F00F0268240F2DE8091
:1022C00040F2023293427BD107F07F07042F00F2E5
:1022D0000881020C40F00581634911F8273043F072
:1022E000020301F82730134670E017F0080F574B30
:1022F00018BF5B4645F8363075E700F063FB5B4975
:102300005B4A51F82430002B00F05781586841F89F
:102310002400115D03F108007860032905D8DFE887
:1023200001F0120F1502042111551A8817F0080F39
:1023300014BFC823882343EA024345F8363052E7E6
:1023400002211155F1E703211155EEE70521115541
:10235000EBE7434D2A683AB34649424C0F8846485A
:1023600094F800E00678402F3B4628BF4023BEF19A
:10237000000F8EF0010E84F800E046F0020486F0B3
:102380000106067009EBC400426014BFC820882013
:1023900040EA03401A44FB1A9BB249F834000B8010
:1023A000002B00F036812A602C4B1A88B2F5A06F02
:1023B0007FF45FAF9A788AF8982000225A7058E725
:1023C000B3F5A06F40F08D8000221346B6F806C02A
:1023D0002948944528BF944667460278402F28BF75
:1023E000402742F0020E3E0409EBCE0846F0C80634
:1023F000C8F8043049F83E6000263B442670BCEB28
:10240000070782F00106067040F01181BCF13F0F12
:102410004FF0010509D946F00206027009EBC60229
:1024200025705360882349F8363001238AF89430A8
:102430001FE700BF00200740C80040000080FF1FCA
:1024400038B1FF1F48B1FF1F88B1FF1F880040004F
:1024500084B1FF1F85B1FF1FB0B1FF1F58B1FF1F2F
:102460002CB1FF1F29B1FF1FC020074060B1FF1F23
:1024700080B1FF1F2AB1FF1F28B1FF1F802B00F082
:102480008B81822B2DD107F07F07042F29D8A74AF3
:1024900000231380A64B13F827309F0740F1FC81DF
:1024A00001231370A14B022290E742F2210C6345F5
:1024B000BBD01DD942F2212293420DD1BFB2002FD1
:1024C00082D19C4B1A689C4B1A609C4BC0F307400E
:1024D00000221870134679E742F2213293423FF40A
:1024E00073AF0F238AF8C03001238AF89430C0E616
:1024F000B3F5086F00F04A81B3F5106FF1D1904B3E
:10250000C0F307400425187059F835301A0606D470
:102510000135142D0CD059F835301A06F8D509EBD1
:10252000C50301355868083800F04CFA142DF2D173
:10253000844A854B0292854A0192854E854ADFF88E
:1025400018820394009200251C4656F8047B2FB194
:1025500038467F6800F036FA002FF9D1009BD8F892
:10256000007043F8045B46F8045C00932FB13846D2
:102570007F6800F027FA002FF9D1029B48F8045B2E
:1025800043F8045B0293019B23F8025B01932378D9
:10259000023B032B00F20981DFE813F03F01040145
:1025A0003F0104016D4A45F836001378013313707A
:1025B00019E643F82400674BFEE5115D022926D099
:1025C0007FF611AE03291DD1012313550BE6E00759
:1025D0006ED4210621D4A20708D5614B93F8882038
:1025E0000221D2B283F8882083F88010E30603D555
:1025F0005B4B102283F8802005B0BDE8F08F00F01F
:1026000059FB11E617F0080F14BF032302231355DB
:10261000E9E53F2F98BF0022C5E6514B80220D21EE
:1026200083F8C01083F88020A207DFD5D5E746F0F5
:1026300002060270402F09EBC6003A4628BF40222E
:1026400043601004134440F088000121BA1A49F88D
:102650003600217055D02B60424B1A8001238AF836
:10266000943006E692885AB93F4AE51D14F8011BDA
:1026700002F8011FAC42F9D13C4A1268862A3CD0CC
:102680003B4C3C4825780278002D85F001052570EB
:1026900042F0020482F00102027009EBC4024FF022
:1026A0000000506014BFC822882249F83420DEE5BB
:1026B0002B4B30483049314C022583F8945002703E
:1026C0002F480C602F4D48608C600D24CD60FF209A
:1026D0000A618A6183F8C04001219F2483F8880041
:1026E00083F8800083F8982083F88C0083F8844076
:1026F00083F8941005B0BDE8F08F234A0F201070C6
:10270000BEE73F2FA7D890E607F07F07042F3FF6DC
:10271000E8AE000C7FF4E5AE054A12F8273023F04E
:10272000020302F82730002213464FE630B1FF1FA4
:10273000C0200740A4B0FF1FACB1FF1FA8B1FF1F0E
:1027400084B1FF1F70B1FF1F80B1FF1F88B1FF1F51
:1027500038B1FF1F48B1FF1F60B1FF1F90B1FF1FCD
:10276000002007402AB1FF1F9FB1FF1FA0B1FF1F2C
:1027700029B1FF1F28B1FF1F0080FF1F8800400004
:10278000A8B0FF1FE8B0FF1F85B1FF1F484B4949A4
:102790001B780B700B4619E6464A00231380454B05
:1027A000022213E64FF001032370434BB34204F1BE
:1027B00001047FF4CAAE414E039CDFF80481414F0F
:1027C00000233370042518F8013B3F4AAB541B0724
:1027D00025D445F0020145F0030204350023142DF1
:1027E00049F8313049F83230EDD1384F25783A7810
:1027F00042F0020009EBC00C85F00106CCF8043071
:10280000002D4DD1882382F0010226703A7049F8DC
:10281000303001238AF894302BE52570C5E700F0AD
:10282000B1F8002832D009EBC5030830586049F8E8
:10283000357000F0A7F808B345F0010309EBC302B7
:102840000830506049F833B0C3E7214A5368002B81
:102850003FF447AE000CBFB204E013690C32002B0A
:102860003FF43FAE11888142F7D15188B942F4D18B
:10287000000A03280CBF1A781289A7E533780133C0
:10288000337045F0010349F83300A2E7337849F883
:10289000350001333370CCE7064B022296E500BECB
:1028A0002670C82382F001063E7049F83030BCE53E
:1028B00084B1FF1F30B1FF1F48B1FF1F90B1FF1F50
:1028C000C83B000088004000C020074028B1FF1F1F
:1028D000743B000070B500F01BFB00231A4A194638
:1028E00042F8331002EBC3000133142B4160F7D1DF
:1028F000164C174B606B174D40F480206063C2F399
:10290000072483F89C40144CFF204FF0010CC2F3C5
:102910000746120E83F8B0604FF0E02E83F8B42023
:1029200083F8800083F88800187483F894C02170BD
:1029300083F884C0702385F849304FF40072102367
:10294000CEF80821237270BD0080FF1F0080044074
:102950000020074000E400E00021074000F0ACB890
:1029600000F07CB800F056B800F090B800F076B9EE
:1029700000F050B90846114600F0BAB8084600F019
:102980003BB900BF72B60D490B68B3FA83F00B2850
:1029900010DC4FF00042C24023EA02030B6062B633
:1029A000074A00EBC000C10002EBC00000235350F7
:1029B0004360704762B60020704700BF4497FF1F16
:1029C000BC93FF1F0E4BC31AB3F5587F10D20D4AAC
:1029D000127872B972B60C4A0C49A2FB032308683C
:1029E0004FF000421B0922FA03F303430B6062B667
:1029F0007047074A1278002AECD0FFF72DBB00BFC2
:102A0000BC93FF1F90B1FF1F398EE3384497FF1F1F
:102A100084B1FF1F38B50F4C206878B14388028815
:102A2000C11801339A420D7A02D94380284638BD35
:102A3000FFF7C8FF00232360284638BD064B1B78EC
:102A40002BB10320FFF7D0FA20600028E6D14FF029
:102A5000FF35EBE794B1FF1F84B1FF1F10B5094CA0
:102A6000206818B143881844007A10BD064B1B78C3
:102A70002BB10320FFF7B8FA20600028F2D14FF005
:102A8000FF3010BD94B1FF1F84B1FF1F084B094AEE
:102A90001B6810B594881BB11A885B88D31A1C4434
:102AA0000CB1204610BD00F029F9204610BD00BF32
:102AB00094B1FF1F88B1FF1F0B4B1B789BB110B562
:102AC0000A4C206848B1FFF77DFF002303202360F4
:102AD000FFF78AFA30B1FFF775FF0320FFF784FA9A
:102AE0000028F8D110BD704784B1FF1F94B1FF1FBB
:102AF0002DE9F04FDFF8EC9083B0012289F8002037
:102B0000019179B3384FDFF8E480019D384EDFF84A
:102B1000E4A083463968A1B3B1F802E0CEF1400CDD
:102B2000AC4528BFAC460EEB0C040022A4B23270B8
:102B3000A5EB0C054C8001F10802BCF1000F0AD096
:102B40000EF1FF3E7244DC441BF8014B02F8014FCA
:102B5000DC45F9D14C883F2C0BD805228AF800209F
:102B6000002DD7D10198002389F8003003B0BDE8CB
:102B7000F08F40220A800420FFF7AEFA00223A606C
:102B8000EBE798F800202AB34AF2F92408E0013C68
:102B900019D03278BAB900F0B1F898F80020CAB16B
:102BA0000420FFF743FA0728F1D84FF0010389F812
:102BB0000030FFF7E7FE014638600028ACD1013C49
:102BC00089F80000E5D101234FF0FF30337003B0E6
:102BD000BDE8F08F00234FF0FF3089F8003003B0DC
:102BE000BDE8F08F99B1FF1F9CB1FF1F84B1FF1F9B
:102BF00098B1FF1FB0B1FF1F00B583B0034601219C
:102C00000DF107008DF80730FFF772FF03B05DF894
:102C100004FB00BF38B50E4D0E4C2868012323700D
:102C200028B140880023C0F14000237038BD0A4B12
:102C30001B7813B90020207038BD0420FFF7F6F987
:102C40000728F7D8FFF79EFE28600028E9D1F1E7B2
:102C50009CB1FF1F99B1FF1F84B1FF1FF8B5114B45
:102C60001B788BB1104E114D346801272F7064B161
:102C70000F4B00271F706388238021460420FFF735
:102C80002BFA376000232B70F8BDFFF77BFE084B53
:102C9000014620B104201C70FFF71EFAF2E71F70F6
:102CA000F0E700BF84B1FF1F9CB1FF1F99B1FF1F68
:102CB000B0B1FF1F38B50E4B1B7853B90D4C2168CE
:102CC00041B103F0FF054B880B800420FFF704FAA5
:102CD000256038BDFFF756FE014620B1BDE83840FB
:102CE0000420FFF7F9B9044B01221A7038BD00BF68
:102CF00099B1FF1F9CB1FF1FB0B1FF1F2DE9F84331
:102D0000324E337863B1324F3A784AB90122D9074B
:102D10003A7043D49A0726D400225B073A7001D454
:102D2000BDE8F8832B4B1A68002AF9D0EFF305822F
:102D3000002AF5D1EFF3108572B6186800283AD052
:102D4000254C2178002936D142691A60012323706D
:102D5000002A37D0916105B962B6002583684577AE
:102D600098472570DCE7DFF8748098F80020002A87
:102D7000D2D00025DFF868902B4659F8234023680D
:102D800020461B690135984708B12369984798F890
:102D90000020EBB29A42F0D83378BDE7FFF776FE19
:102DA00068B9104B1B780BB93378B3E7337803F06D
:102DB000FE033370AEE7002DB2D162B6B0E700F08B
:102DC000A5F8EEE7084B1A60C5E700BF4897FF1F5C
:102DD000B1B1FF1FB4B1FF1FC0B1FF1FD4B1FF1FBE
:102DE000C8B1FF1F703B0000C4B1FF1F70B5EFF307
:102DF000108272B60C4C206880B10C4E00254369DD
:102E0000236073B19D6102B962B6836845779847C4
:102E1000EFF3108272B620680028F0D102B962B6D2
:102E200070BD3360EFE700BFBCB1FF1FB8B1FF1F3B
:102E3000FFF7DCBF024A136801331360704700BF1D
:102E4000A4B0FF1F2A4B2B4A6020E1211870597053
:102E500013782948082B34D00A2B20D00C2B274B71
:102E60000CBF35213D2112228160C2609960DA6079
:102E7000234B21491B78214ACBB101230B621362FA
:102E8000204B1D491B781D4A012B13D9042B1BD83D
:102E900084234B6253621C4B01221A707047174BFC
:102EA000392113228160C2609960DA60E0E70B6229
:102EB0001362E5E780234B625362134B01221A70C1
:102EC00070470E4B0121ECE7082B06D885234B6297
:102ED00053620D4B01221A707047102B94BF86234A
:102EE00087234B625362084B01221A70704700BF60
:102EF000004007404997FF1F00B0034000B00B405F
:102F0000D5B1FF1F4A97FF1FD6B1FF1F704700BF03
:102F100010B584B072B6174A702441200F21802367
:102F20001470D0719171137013781B06FCD59068E2
:102F300062B6114B114C984238BF00EB800001A9DA
:102F400038BF40000A2200F01BF801A920460023E8
:102F500011F8012B01333AB10A2B20F8022FF7D1D7
:102F60001623237004B010BD5B00DBB2237004B0E5
:102F700010BD00BF0000024080969800D897FF1F48
:102F800001F1FF3C70B56546002401E07046013454
:102F9000B0FBF2FE02FB1E03092B03F130068ABFD1
:102FA0003733F3B2DBB2904205F8013FEED2631C37
:102FB0000022CA54C8187CB162461CF8015F10F8A0
:102FC00001ED8CF800E0A1EB0C030232013B521A38
:102FD00023449A420570EFDB084670BD034608465D
:102FE000194600F023BB00BF014B1868704700BFB3
:102FF000289DFF1F024B0146186800F00BB800BF68
:10300000289DFF1F024B0146186800F0B3BB00BFAC
:10301000289DFF1F2DE9F04F01F10B06162E83B0FE
:10302000044624D8102900F2BA8000F041FB102693
:1030300018220220B54F3A44A2F1080153688B428E
:1030400000F0BA805A68D96822F003021A449D68D9
:10305000E9608D60516841F001012046516003F143
:10306000080500F02BFB284603B0BDE8F08F36F0D2
:10307000070600F19480B14200F2918000F018FB45
:10308000B6F5FC7FC0F09A81730A00F08F80042BA4
:1030900000F26F81B30903F1390003F1380CC3006A
:1030A0009A4F3B44A3F108055B689D4206D10CE0B2
:1030B000002980F22781DB689D4206D05A6822F001
:1030C0000302911B0F29F3DD60463D69DFF840C222
:1030D00065457CD06A6822F00302931B0F2B00F336
:1030E0007B81002BC7E904CC80F26C81B2F5007FB4
:1030F00080F01A81D308796801334FEA521E012209
:1031000002FA0EF20A4357F833E0C5F808E007EB7D
:10311000C3010839E9607A6047F83350CEF80C50A3
:10312000831001219940914257D8114206D120F0D5
:1031300003004900114200F10400FAD007EBC00976
:103140004D468646D5F80C80454508D11DE1002B3B
:1031500080F22481D8F80C80454500F01681D8F81B
:10316000042022F00302931B0F2BF0DD2046D8E948
:10317000025408EB060146F00106C8F80460EC6052
:10318000A56043F00104C7E90411C1E902CC4C6019
:1031900048F8023000F092FA08F1080502E00C232A
:1031A00023600025284603B0BDE8F08F4FF400737C
:1031B00040204FF03F0C73E7D3689A4208BF0230BB
:1031C0007FF440AF3D69DFF848C1654582D17A6838
:1031D0008310012199409142A7D9BD686B6823F003
:1031E00003094E4503D8A9EB06030F2B7ADCDFF861
:1031F00024B1494BDBF800201B680132334405EB56
:10320000090A00F0338103F580530F3323F47F68FC
:1032100028F00F084146204600F0B2FB411C024650
:1032200000F0F380824500F2EE803C4B1968414487
:103230001960084600F04E81DBF80010019301315F
:103240001BBFA2EB0A010918CBF80020196012F08D
:10325000070B00F01781CBF108010A44CBF5805130
:1032600090440831A1EB0801C1F30B0A51462046F6
:10327000009200F085FB421CDDE9002300F04F8145
:10328000801A00EB0A081968BA6048F0010051443E
:10329000BD425060196000F02981B9F10F0F40F272
:1032A00027816868A9F10C0C2CF0070C00F00100D4
:1032B00040EA0C0068604FF0050E05EB0C00BCF115
:1032C0000F0FC0E901EE00F2328150681546144B31
:1032D0001A688A4238BF1960124B1A688A4238BF8E
:1032E000196094E0AA1943F0010346F001066E60EC
:1032F0002046BA60536000F0E1F90835284603B073
:10330000BDE8F08FD9681A44A1E600BFF097FF1F0F
:10331000F897FF1FF89BFF1F08B2FF1FD8B1FF1FD0
:1033200000B2FF1F04B2FF1FB2F5206F4FEA522315
:1033300063D3142B00F2B78003F15C01C9005B3347
:1033400007EB010E7958AEF1080E8E4500F0918022
:103350004B6823F00303934202D989688E45F7D165
:10336000D1F80CE07A68C5E9021ECEF80850CD60AD
:10337000D6E6142B59D9542B00F29D80330B03F160
:103380006F0003F16E0CC3008AE60EF1010E1EF011
:10339000030F05F108057FF4D5AE51E042444546E0
:1033A0005368D8F80C1043F00103536055F8083FF8
:1033B0002046D9608B6000F081F9F3E6F00806F151
:1033C000080237E62A442046536843F0010353605D
:1033D000083500F073F9E5E6A919204646F0010624
:1033E00043F001046E60C7E90411C1E902CC4C60EE
:1033F000AB5000F063F90835D4E6930903F13901C5
:10340000C90038339CE7BD425FD0BD68686820F0D2
:1034100003084645A8EB060302D80F2B3FF762AF1F
:10342000204600F04BF90025BCE603F15C0003F1F7
:103430005B0CC30034E659F808394B4540F09680E0
:1034400010F0030F00F1FF30F5D17B6823EA010390
:103450007B60490099423FF6C0AE19B9BDE649000C
:103460000EF1040E1942FAD0704667E603F1100817
:10347000D0E69A104FF001087B6808FA02F21A436E
:103480007A6070E702EB08014942C1F30B0A51462A
:103490002046009200F074FA431CDDE900237FF41B
:1034A000EFAEDA46EFE6542B25D8130B03F16F018C
:1034B000C9006E3344E7B3F5AA7F25D8F30B03F1B7
:1034C000780003F1770CC300EAE5294B1868404403
:1034D0001860B1E6CAF30B0CBCF1000F7FF4ACAE80
:1034E000BD68C84448F001006860F0E61546EEE6A5
:1034F0000123536094E7B3F5AA7F23D8D30B03F1DC
:103500007801C90077331BE740F25452934223D825
:10351000B30C03F17D0003F17C0CC300C0E5ABF1FB
:10352000080BD844A8EB02084FF0000AABE605F1FF
:1035300008012046009300F01DF9BD68009B6868F3
:103540001968C4E640F254518B420BD8930C03F136
:103550007D01C9007C33F3E64FF47E737F204FF08A
:103560007E0C9DE54FF47E717E23E9E67B6870E773
:10357000D8B1FF1F024B13B1024800F0A5B8704745
:103580000000000081360000830730B548D0541E8B
:10359000002A3FD0CAB2034601E0013C3AD303F807
:1035A000012B9D07F9D1032C2DD9CDB245EA052574
:1035B0000F2C45EA054536D9A4F1100222F00F0C74
:1035C00003F1200EE6444FEA121C03F1100242E917
:1035D000045542E9025510327245F8D10CF101024E
:1035E00014F00C0F03EB021204F00F0C13D0ACF12B
:1035F000040323F003030433134442F8045B9342AF
:10360000FBD10CF003042CB1C9B21C4403F8011B1C
:103610009C42FBD130BD64461346002CF4D1F9E73F
:1036200003461446BFE71A46A446E0E713460A4697
:103630000146022000F0B6B970B50D4E0D4D761B57
:10364000B61006D0002455F8043B01349847A64232
:10365000F9D1094E094D761B00F0B8FAB61006D024
:10366000002455F8043B01349847A642F9D170BDB7
:10367000D83B0000D83B0000E83B0000D83B0000EE
:1036800038B5074D074C2C1BA41005D0013C55F84C
:10369000043D9847002CF9D1BDE8384000F0A4BAA9
:1036A0000000000000000000704700BF704700BF2E
:1036B0000148FFF7F9BF00BF14B2FF1F0148FFF731
:1036C000F5BF00BF14B2FF1F002301461A4618467B
:1036D00000F068B9F8B5244F0C460646FFF7E8FF3E
:1036E000BB685D68C4F57E610F3125F003054B1999
:1036F00023F47F6323F00F03A3F58054B4F5805FB8
:1037000007DB0021304600F03BF9BB682B449842B0
:1037100004D03046FFF7D2FF0020F8BD61423046AA
:1037200000F02EF901300DD0104ABB682D1B45F07A
:1037300001055D60136830461B1B1360FFF7BEFF79
:103740000120F8BD0021304600F01AF9BA68831A4A
:103750000F2BDEDD43F001035360054B03491B686B
:10376000C01A0860D5E700BFF097FF1FD8B1FF1F50
:10377000F89BFF1F002961D0F8B50C460646FFF7FD
:1037800097FF54F8042C7B4FA4F1080522F00101A7
:1037900005EB010CB868DCF80430604523F0030346
:1037A00000F08B80D207CCF8043032D454F8082CC7
:1037B000AD1A1144AA6807F1080082426AD00CEBE6
:1037C0000304D4F804E0EC68D4601EF0010FA2609A
:1037D00000F0978041F001036B60CCF80010B1F568
:1037E000007F35D27868CB080122490901338A402D
:1037F000024357F833107A6007EBC302083AC5E971
:10380000021247F83350CD603046BDE8F840FFF76C
:1038100055BF0CEB03025268D00710D4194407F1CE
:103820000800DCF80830834273D0DCF80C20DA6042
:10383000936041F001036B606950D0E7704741F03D
:103840000103B1F5007F44F8043CCCF80010C9D363
:10385000B1F5206F4FEA512348D28B0903F13900AB
:1038600003F13802C300F818FB580838984259D0C1
:103870005A6822F003028A4202D99B689842F7D123
:10388000D868C5E902308560DD603046BDE8F840A3
:10389000FFF714BF0CEB03025268D20763D40B444A
:1038A000DCE90212CA60916043F001026A603046AE
:1038B000EB50BDE8F840FFF701BF0B44D10707D438
:1038C00054F8082CAD1A1344D5E90212CA6091606D
:1038D00043F001026A60284ABD6012689A4293D898
:1038E000264B30461968FFF7F5FE8DE7142B0AD9F1
:1038F000542B1FD80B0B03F16F0003F16E02C300B2
:10390000B1E719448DE703F15C0003F15B02C300EA
:10391000A9E741F00103C7E90455C5E902006B605E
:10392000695071E779689210012404FA02F20A439F
:103930007A60A6E7B3F5AA7F06D8CB0B03F178002F
:1039400003F17702C3008EE740F25452934206D847
:103950008B0C03F17D0003F17C02C30083E74FF47D
:103960007E737E227FE741F001036B60CCF800108C
:103970004AE700BFF097FF1FFC9BFF1F08B2FF1F25
:1039800038B5074D0022044608462A60FEF70CFAB7
:10399000431C00D038BD2B68002BFBD0236038BD02
:1039A000E0B4FF1F2DE9F047DFF874A00646DAF80F
:1039B000000098460F469146FFF776FE194B1C68AB
:1039C00024B365681F2D24DC5EB96B1C0235DAF860
:1039D0000000636044F82570FFF768FE0020BDE832
:1039E000F08704EB85010123C1F88890D4F8882181
:1039F000AB401A43022EC4F88821C1F80881E4D1F3
:103A0000D4F88C211A43C4F88C21DEE7064C1C60E4
:103A1000D7E7DAF80000FFF749FE4FF0FF30DEE7A6
:103A2000009CFF1F0CB2FF1F50B3FF1F4C54502DC2
:103A30004F63746F313600FF4008FE4340A00440DE
:103A40004408FE4344A004400018FE4300C0044064
:103A50003000FE43309004403400FE433490044074
:103A60001C18FE431CC004401018FE4310C0044044
:103A70000818FE4308C004400C18FE430CC0044064
:103A80000C10FE430CB004401010FE4310B0044074
:103A90001810FE4318B004401C10FE431CB0044034
:103AA0001410FE4314B004400418FE4304C0044044
:103AB0000010FE4300B004400008FE4300A0044094
:103AC0000408FE4304A004400C08FE430CA004407C
:103AD0000808FE4308A004401418FE4314C0044024
:103AE0001818FE4318C004400410FE4304B00440FC
:103AF0000810FE4308B004401400FE431490044034
:103B00004C08FE434CA004400420FE4304D0044073
:103B10002410FE4324B004402010FE4320B0044093
:103B20002810FE4328B004402C10FE432CB0044063
:103B30000020FE4300D004404808FE4348A0044053
:103B40001000FE4310900440000000000000000040
:103B50007D29000075290000712900006D290000F1
:103B60006929000065290000612900005D29000025
:103B700000FFFFFF000100009097FF1F12000000F0
:103B8000000200004C97FF1F4300000000030000EC
:103B9000A497FF1F0000000001030904A897FF1F5E
:103BA0000000000002030904C097FF1F000000008E
:103BB00003030904D897FF1F000000000000000065
:103BC000000000000000000000151915F8B500BF46
:103BD000F8BC08BC9E4670477535000035040000EF
:083BE000550D00005919000009
:043BE800F8B500BF6D
:083BEC00F0F3FF7F010000006F
:103BF40000000000FF16000000000000FF000000AD
:103C0400E4B4FF1F503B000000000000E803000084
:103C140000000000FFFFFFFF010A04000902430047
:103C2400020100C03209040000010202010005245F
:103C340000100105240101010424020605240600E4
:103C4400010705820310004009040100020A000074
:103C5400000705030240000007058402400000003D
:103C64001201100102000040C01683047502010213
:103C740003010000040309041803540065006500EF
:103C84006E00730079006400750069006E006F00B7
:103C940016035500530042002000530065007200D3
:103CA400690061006C0000000C03000000000000CB
:103CB4000000000000000000000000000000000000
:103CC4000000000000000000F097FF1FF097FF1FA6
:103CD400F897FF1FF897FF1F0098FF1F0098FF1F1A
:103CE4000898FF1F0898FF1F1098FF1F1098FF1FC8
:103CF4001898FF1F1898FF1F2098FF1F2098FF1F78
:103D04002898FF1F2898FF1F3098FF1F3098FF1F27
:103D14003898FF1F3898FF1F4098FF1F4098FF1FD7
:103D24004898FF1F4898FF1F5098FF1F5098FF1F87
:103D34005898FF1F5898FF1F6098FF1F6098FF1F37
:103D44006898FF1F6898FF1F7098FF1F7098FF1FE7
:103D54007898FF1F7898FF1F8098FF1F8098FF1F97
:103D64008898FF1F8898FF1F9098FF1F9098FF1F47
:103D74009898FF1F9898FF1FA098FF1FA098FF1FF7
:103D8400A898FF1FA898FF1FB098FF1FB098FF1FA7
:103D9400B898FF1FB898FF1FC098FF1FC098FF1F57
:103DA400C898FF1FC898FF1FD098FF1FD098FF1F07
:103DB400D898FF1FD898FF1FE098FF1FE098FF1FB7
:103DC400E898FF1FE898FF1FF098FF1FF098FF1F67
:103DD400F898FF1FF898FF1F0099FF1F0099FF1F15
:103DE4000899FF1F0899FF1F1099FF1F1099FF1FC3
:103DF4001899FF1F1899FF1F2099FF1F2099FF1F73
:103E04002899FF1F2899FF1F3099FF1F3099FF1F22
:103E14003899FF1F3899FF1F4099FF1F4099FF1FD2
:103E24004899FF1F4899FF1F5099FF1F5099FF1F82
:103E34005899FF1F5899FF1F6099FF1F6099FF1F32
:103E44006899FF1F6899FF1F7099FF1F7099FF1FE2
:103E54007899FF1F7899FF1F8099FF1F8099FF1F92
:103E64008899FF1F8899FF1F9099FF1F9099FF1F42
:103E74009899FF1F9899FF1FA099FF1FA099FF1FF2
:103E8400A899FF1FA899FF1FB099FF1FB099FF1FA2
:103E9400B899FF1FB899FF1FC099FF1FC099FF1F52
:103EA400C899FF1FC899FF1FD099FF1FD099FF1F02
:103EB400D899FF1FD899FF1FE099FF1FE099FF1FB2
:103EC400E899FF1FE899FF1FF099FF1FF099FF1F62
:103ED400F899FF1FF899FF1F009AFF1F009AFF1F10
:103EE400089AFF1F089AFF1F109AFF1F109AFF1FBE
:103EF400189AFF1F189AFF1F209AFF1F209AFF1F6E
:103F0400289AFF1F289AFF1F309AFF1F309AFF1F1D
:103F1400389AFF1F389AFF1F409AFF1F409AFF1FCD
:103F2400489AFF1F489AFF1F509AFF1F509AFF1F7D
:103F3400589AFF1F589AFF1F609AFF1F609AFF1F2D
:103F4400689AFF1F689AFF1F709AFF1F709AFF1FDD
:103F5400789AFF1F789AFF1F809AFF1F809AFF1F8D
:103F6400889AFF1F889AFF1F909AFF1F909AFF1F3D
:103F7400989AFF1F989AFF1FA09AFF1FA09AFF1FED
:103F8400A89AFF1FA89AFF1FB09AFF1FB09AFF1F9D
:103F9400B89AFF1FB89AFF1FC09AFF1FC09AFF1F4D
:103FA400C89AFF1FC89AFF1FD09AFF1FD09AFF1FFD
:103FB400D89AFF1FD89AFF1FE09AFF1FE09AFF1FAD
:103FC400E89AFF1FE89AFF1FF09AFF1FF09AFF1F5D
:103FD400F89AFF1FF89AFF1F009BFF1F009BFF1F0B
:103FE400089BFF1F089BFF1F109BFF1F109BFF1FB9
:103FF400189BFF1F189BFF1F209BFF1F209BFF1F69
:10400400289BFF1F289BFF1F309BFF1F309BFF1F18
:10401400389BFF1F389BFF1F409BFF1F409BFF1FC8
:10402400489BFF1F489BFF1F509BFF1F509BFF1F78
:10403400589BFF1F589BFF1F609BFF1F609BFF1F28
:10404400689BFF1F689BFF1F709BFF1F709BFF1FD8
:10405400789BFF1F789BFF1F809BFF1F809BFF1F88
:10406400889BFF1F889BFF1F909BFF1F909BFF1F38
:10407400989BFF1F989BFF1FA09BFF1FA09BFF1FE8
:10408400A89BFF1FA89BFF1FB09BFF1FB09BFF1F98
:10409400B89BFF1FB89BFF1FC09BFF1FC09BFF1F48
:1040A400C89BFF1FC89BFF1FD09BFF1FD09BFF1FF8
:1040B400D89BFF1FD89BFF1FE09BFF1FE09BFF1FA8
:1040C400E89BFF1FE89BFF1FFFFFFFFF00000200AC
:1040D40010B2FF1F000000000000000018B2FF1F14
:1040E40080B2FF1FE8B2FF1F0000000000000000C4
:1040F40000000000000000000000000000000000BC
:1041040000000000000000000000000000000000AB
:10411400000000000000000000000000000000009B
:10412400000000000000000000000000000000008B
:10413400000000000000000000000000000000007B
:10414400000000000000000000000000000000006B
:10415400000000000000000000000000000000005B
:10416400000000000000000000000000000000004B
:1041740001000000000000000E33CDAB34126DE6E8
:10418400ECDE05000B000000000000000000000051
:10419400000000000000000000000000000000001B
:1041A400000000000000000000000000000000000B
:1041B40000000000000000000000000000000000FB
:1041C40000000000000000000000000000000000EB
:1041D40000000000000000000000000000000000DB
:1041E40000000000000000000000000000000000CB
:0C41F4000000000000000000089CFF1FFD
:00000001FF
